:100000000C94340018950000189500001895000015
:10001000189500001895000018950000189500002C
:10002000189500001895000018950000189500001C
:10003000189500001895000018950000189500000C
:1000400018950000189500001895000018950000FC
:1000500018950000189500001895000018950000EC
:1000600018950000189500008FEF8DBFC8EDE0ECEB
:100070004E2E88E08EBFD8E0F8E05F2EA89584B7BA
:10008000082E877F84BF88E1992780936000909332
:100090006000EEEFF7E0A0E0B1E088278D933197A4
:1000A000E9F787E68093C40080E08093C50088E18B
:1000B0008093C1000E94B7046624509A5898529ABF
:1000C0005A988CE00E94050587E880937A0080E4C6
:1000D00080937C002098219A299A04E610E020E081
:1000E00030E0A3E0B1E00D931D932D933C93A3E08A
:1000F000B1E00D911D912D913C91A7E0B1E00D93E0
:100100001D932D933C9304E610E020E030E0A3E142
:10011000B1E00D931D932D933C93A3E1B1E00D91BC
:100120001D912D913C91A7E1B1E00D931D932D936D
:100130003C9380ED97E00E94CD0500917C00007F0C
:1001400000937C000E940406A3E0B1E08D939D9390
:1001500088278D938C93A3E0B1E00D911D912D9193
:100160003C9144E650E060E070E00E94E105A3E0CD
:10017000B1E00D931D932D933D93A3E0B1E00D915C
:100180001D912D913C9140E054E060E070E00E94B0
:100190002905A3E0B1E04D935D936D937D93A8EAAB
:1001A000B8E0E3E0F1E00E943F060E94C205E4E20D
:1001B000FDE00E94B7050E94BE050E94B4044AE01B
:1001C00050E060E070E0A3E0B1E00D911D912D9151
:1001D0003C910E9429060CF402C00C94F300589A3A
:1001E0005A9A0C94F50058985A9842E650E060E00C
:1001F00070E0A3E0B1E00D911D912D913C910E9422
:1002000029060CF002C00C942901E6E2FDE00E94F0
:10021000AB048FEF0E94FF048FEF0E94FF048FEF6B
:100220000E94FF048FEF0E94FF048FEF0E94FF04E3
:100230008FEF0E94FF048FEF0E94FF048FEF0E9458
:10024000FF048FEF0E94FF048FEF0E94FF040C94C5
:10025000AA034AE550E060E070E0A3E0B1E00D9150
:100260001D912D913C910E94290680E00CF081E0C7
:100270008F9342E650E060E070E0A3E0B1E00D91C2
:100280001D912D913C910E94290680E00CF481E0A3
:100290009F918923882311F40C947301E6E2FDE019
:1002A0000E94AB048FEF0E94FF048FEF0E94FF04B7
:1002B0008FEF0E94FF048FEF0E94FF048FEF0E94D8
:1002C000FF048FEF0E94FF048FEF0E94FF048FEF67
:1002D0000E94FF048FEF0E94FF04EEE2FDE00E9407
:1002E000AB040C94AA0340E550E060E070E0A3E0AA
:1002F000B1E00D911D912D913C910E94290680E065
:100300000CF081E08F934AE550E060E070E0A3E0FC
:10031000B1E00D911D912D913C910E94290680E044
:100320000CF481E09F918923882311F40C94BA0185
:10033000E6E2FDE00E94AB048FEF0E94FF048FEF26
:100340000E94FF048FEF0E94FF048FEF0E94FF04C2
:100350008FEF0E94FF048FEF0E94FF048FEF0E9437
:10036000FF048FEF0E94FF04E0E3FDE00E94AB0476
:100370000C94AA0346E450E060E070E0A3E0B1E032
:100380000D911D912D913C910E94290680E00CF069
:1003900081E08F9340E550E060E070E0A3E0B1E0E1
:1003A0000D911D912D913C910E94290680E00CF445
:1003B00081E09F918923882311F40C94FE01E6E2E9
:1003C000FDE00E94AB048FEF0E94FF048FEF0E94BC
:1003D000FF048FEF0E94FF048FEF0E94FF048FEF56
:1003E0000E94FF048FEF0E94FF048FEF0E94FF0422
:1003F000E4E3FDE00E94AB040C94AA034CE350E05C
:1004000060E070E0A3E0B1E00D911D912D913C9171
:100410000E94290680E00CF081E08F9346E450E0D2
:1004200060E070E0A3E0B1E00D911D912D913C9151
:100430000E94290680E00CF481E09F9189238823A3
:1004400011F40C943F02E6E2FDE00E94AB048FEF52
:100450000E94FF048FEF0E94FF048FEF0E94FF04B1
:100460008FEF0E94FF048FEF0E94FF048FEF0E9426
:10047000FF04E8E3FDE00E94AB040C94AA0342E30E
:1004800050E060E070E0A3E0B1E00D911D912D918E
:100490003C910E94290680E00CF081E08F934CE3B0
:1004A00050E060E070E0A3E0B1E00D911D912D916E
:1004B0003C910E94290680E00CF481E09F91892301
:1004C000882311F40C947D02E6E2FDE00E94AB0467
:1004D0008FEF0E94FF048FEF0E94FF048FEF0E94B6
:1004E000FF048FEF0E94FF048FEF0E94FF04EEE3F2
:1004F000FDE00E94AB040C94AA0348E250E060E0E7
:1005000070E0A3E0B1E00D911D912D913C910E940E
:10051000290680E00CF081E08F9342E350E060E038
:1005200070E0A3E0B1E00D911D912D913C910E94EE
:10053000290680E00CF481E09F918923882311F43F
:100540000C94B802E6E2FDE00E94AB048FEF0E943B
:10055000FF048FEF0E94FF048FEF0E94FF048FEFD4
:100560000E94FF04E4E4FDE00E94AB040C94AA03A3
:100570004EE150E060E070E0A3E0B1E00D911D912C
:100580002D913C910E94290680E00CF081E08F9330
:1005900048E250E060E070E0A3E0B1E00D911D9111
:1005A0002D913C910E94290680E00CF481E09F91FE
:1005B0008923882311F40C94F002E6E2FDE00E9406
:1005C000AB048FEF0E94FF048FEF0E94FF048FEFB8
:1005D0000E94FF04ECE4FDE00E94AB040C94AA032B
:1005E00044E150E060E070E0A3E0B1E00D911D91C6
:1005F0002D913C910E94290680E00CF081E08F93C0
:100600004EE150E060E070E0A3E0B1E00D911D919B
:100610002D913C910E94290680E00CF481E09F918D
:100620008923882311F40C942503E6E2FDE00E945F
:10063000AB048FEF0E94FF048FEF0E94FF04E4E5FC
:10064000FDE00E94AB040C94AA034AE050E060E095
:1006500070E0A3E0B1E00D911D912D913C910E94BD
:10066000290680E00CF081E08F9344E150E060E0E7
:1006700070E0A3E0B1E00D911D912D913C910E949D
:10068000290680E00CF481E09F918923882311F4EE
:100690000C945703E6E2FDE00E94AB048FEF0E944A
:1006A000FF04EEE5FDE00E94AB040C94AA034AE0CF
:1006B00050E060E070E0A3E0B1E00D911D912D915C
:1006C0003C910E9429060CF402C00C94AA03E8E6AF
:1006D000FDE00E94AB0488EC90E00E94CD050E94F2
:1006E000B404E6E2FDE00E94AB048FEF0E94FF0439
:1006F000EEE5FDE00E94AB0488EC90E00E94CD05A1
:10070000A3E0B1E04D915D916D917C91A7E0B1E0E6
:100710000D911D912D913C910E9429061CF011F024
:100720000C9494030C94AA03EAE7FDE00E94B70539
:10073000A8EAB8E0E3E0F1E00E943F060E94C205AB
:10074000E4E2FDE00E94B705E4E8FDE00E94B705A1
:100750000E94BE05A3E0B1E00D911D912D913C9149
:10076000A7E0B1E00D931D932D933C9300917C0085
:10077000007F016000937C000E940406ABE0B1E0C2
:100780008D939D9388278D938C93ABE0B1E00D9171
:100790001D912D913C9142E050E060E070E00E949C
:1007A0002905ABE0B1E04D935D936D937D93ABE094
:1007B000B1E00D911D912D913C9144E150E060E03C
:1007C00070E00E942905AFE0B1E04D935D936D9319
:1007D0007D93ABE0B1E00D911D912D913C91AFE087
:1007E000B1E04D915D916D917C910E942406A3E151
:1007F000B1E00D931D932D933D9349E350E060E0EC
:1008000070E0A3E1B1E00D911D912D913C910E940A
:1008100029061CF011F00C940F040C942304A3E19E
:10082000B1E00D911D912D913C9142E050E060E0CE
:1008300070E00E941F06A3E1B1E00D931D932D937C
:100840003D930C94470446E250E060E070E0A3E181
:10085000B1E00D911D912D913C910E9429061CF053
:1008600011F00C9435040C944704A3E1B1E00D9110
:100870001D912D913C9141E050E060E070E00E94BC
:100880001F06A3E1B1E00D931D932D933D93A7E1C6
:10089000B1E04D915D916D917C91A3E1B1E00D913D
:1008A0001D912D913C910E94290680E00CF481E07D
:1008B0008F93A7E1B1E04D915D916D917C91A3E1A2
:1008C000B1E00D911D912D913C910E94290680E08F
:1008D00014F009F081E09F91892B882311F40C9486
:1008E000A1040E94B204E8E9FDE00E94AB04A8EA7A
:1008F000B8E0E3E1F1E00E943F060E94A304E4EACD
:10090000FDE00E94AB04A3E1B1E00D911D912D919A
:100910003C91A7E1B1E00D931D932D933C93E8EA40
:10092000FDE00E94B705A8EAB8E0E3E1F1E00E942B
:100930003F060E94C205E2EBFDE00E94B7050E945F
:10094000BE050C949D00A8EAB8E08D91882311F0B3
:1009500056D0FBCF08950E941B06802D11F04FD07A
:10096000FACF089580EC51C080E84FD008958AEF07
:1009700090E00E94CD05579A569A559A549A239A18
:10098000249A2C9885E090E00E94CD052B985F98E2
:100990005E985D9A5C9A2B9AEF93FF93ECE8F1E0F6
:1009A0000E947D05FF91EF912B98F4D02B9AEF9345
:1009B000FF93ECE8F1E00E947D05FF91EF912B9809
:1009C000E9D02B9AEF93FF93ECE8F1E00E947D05CC
:1009D000FF91EF912B98DED05C982B9AEF93FF93C9
:1009E000ECE8F1E00E947D05FF91EF912B98D2D0C9
:1009F00088E20BD08EE009D086E007D008952C9ACB
:100A0000829505D004D0C6D008952C98F9CF85954D
:100A100010F45C9A01C05C98859510F45D9A01C051
:100A20005D98859510F45E9A01C05E98859510F4E6
:100A30005F9A01C05F982B9AEF93FF93ECE8F1E087
:100A40000E947D05FF91EF912B98089500FC05D041
:100A5000089530D005D001F8F9CF37D03FD00895B0
:100A6000842F952FA62FB72FE894452B462B472B85
:100A700011F468940895402F512F622F732F00278F
:100A8000112722273327F0E2440F551F661F771FD7
:100A9000001F111F221F331F081B190B2A0B3B0BB2
:100AA000416028F4080F191F2A1F3B1F4E7FFA953B
:100AB00059F708950024E89477FF02C006D068949F
:100AC00000F809D010F80124089512D04F5F5F4F4D
:100AD0006F4F7F4F0895E89437FF08950095109564
:100AE000209530950F5F1F4F2F4F3F4F689408950B
:100AF000409550956095709508953197F1F7089558
:100B0000689462F80895E89462F808958F939F932B
:100B10008BEC90E00197F1F79F918F91089529E078
:100B20001899FECFF3DFF2DFF1DF8894189908946B
:100B30002A9519F087959795F6CF08958F939F93EF
:100B40008BEC90E00197F1F79F918F91089580953C
:100B50002AE090E0089410F4299802C0299A000035
:100B6000EDDFECDF969587952A95A9F708950E9409
:100B70001B06802D11F0EBDFFACF08958DE0E7DF43
:100B80008AE0E5CFA8EAB8E08D91882311F0DFDF95
:100B9000FBCF089581E090E000C0EF93FF93EE2734
:100BA000E82BE92B31F0E0EAFFE03197F1F701970C
:100BB000D1F7FF91EF910895019111912191308129
:100BC00008950F921F922F92C801D901489F80016A
:100BD0004A9F90014B9F202C499F100D211D321DD3
:100BE0005A9F202C589F100D211D321D599F200DFA
:100BF000311D689F200D311D699F300D789F300D8C
:100C00002F901F900F90089570917A0070647093E8
:100C10007A0000907A0006FCFCCF70917A00706434
:100C200070937A0000907A0006FCFCCF80917800E7
:100C3000909179000895C895319600200895040F89
:100C4000151F261F371F0895041B150B260B370B86
:100C5000089504171507260737070895000F111F79
:100C6000221F331F089500951095209530950F5F32
:100C70001F4F2F4F3F4F0895019110810FC00E94C9
:100C8000DC050EC00E94DC0510C00191108117FF29
:100C900005C03FEF2FEF04C0008111272227332723
:100CA00037FF03C0E0DF8DE28D93CF92DF92EF92AA
:100CB000AA24BB24CC24DD24EE2440E2EAE0FF2772
:100CC00055E093E38081890F87FD9F7083FD907FBE
:100CD000891B81935A95A9F7C1DFAA1CBB1CCC1CA8
:100CE000DD1CEE1C4A9551F7E894EFE0FF27829156
:100CF0000CD0EB30E0F71EF068948A2D0AD08827DC
:100D00008D93EF90DF90CF900895982F829501D02A
:100D1000892F8F70805D26F0803309F408956894E0
:100D20008D93089525004C6576656C3A000020008F
:100D30002020000020202000202020200000202053
:100D40002020200020202020202000002020202003
:100D500020202000202020202020202000002020F3
:100D600020202020202020004C6576656C3A202031
:100D7000202020202020202000004C6576656C205B
:100D80006973200050616369656E74206E656564E7
:100D90002068656C7021000054656D702E206973A9
:100DA0003A2000006320200054656D702E20697386
:040DB00020006300BC
:00000001FF
